:10000000F8FF022099010000BD1E0000751E0000CF
:10001000751E0000751E0000751E0000751E000094
:10002000751E0000751E0000751E0000BD1E00003C
:10003000BD1E0000751E0000A11C0000A51D0000D3
:10004000BD1E0000BD1E0000BD1E0000BD1E000044
:10005000BD1E0000BD1E0000BD1E0000BD1E000034
:10006000BD1E0000BD1E0000BD1E0000BD1E000024
:10007000BD1E0000BD1E0000BD1E0000BD1E000014
:10008000BD1E0000BD1E0000BD1E0000BD1E000004
:10009000BD1E0000BD1E0000BD1E0000BD1E0000F4
:1000A000BD1E0000BD1E0000BD1E0000BD1E0000E4
:1000B000BD1E0000BD1E0000BD1E00003136000048
:1000C000BD1E00005D370000BD1E00008938000025
:1000D000BD1E000081390000BD1E0000BD1E0000D5
:1000E000BD1E0000BD1E0000BD1E0000BD1E0000A4
:1000F000BD1E0000BD1E0000BD1E0000BD1E000094
:10010000BD1E0000BD1E0000BD1E0000BD1E000083
:10011000BD1E000005250000BD1E0000BD1E000024
:10012000BD1E0000BD1E0000BD1E0000BD1E000063
:10013000BD1E0000BD1E0000BD1E0000BD1E000053
:10014000BD1E0000BD1E0000793A0000BD1E00006B
:10015000713B0000BD1E0000BD1E0000BD1E000062
:10016000BD1E0000BD1E0000BD1E0000BD1E000023
:10017000BD1E0000BD1E0000BD1E0000BD1E000013
:10018000BD1E0000BD1E0000BD1E0000BD1E000003
:10019000BD1E0000BD1E0000584B4CF2205210B591
:1001A0001A804DF628121A8000BF00BF01F08AFEA7
:1001B000534B4FF030621A60524A9A60524ADA60EA
:1001C000524B4FF470021A60514A136813F4807353
:1001D00004D150490B604FF4A85313604E4B1A786A
:1001E000110703D51A7842F008021A704B4B4C499C
:1001F0002A221A704B4A4C4B8B4204D252F8040FFD
:1002000043F8040BF8E7494B494900228B4202D2DC
:1002100043F8042BFAE74749474A002352F82300E2
:1002200041F823000133662BF8D1444B444A802126
:1002300003F8011B9342FBD1424B3E4A1A60424BEA
:100240008A221A70A3F5805324225A70A0221A70B1
:100250009A799207FCD59A79D406FCD43B4A9379D3
:1002600003F00C03082B394BF9D103221A714622F3
:100270005A719A799006FCD5344A9179334B4906E4
:10028000FBD5334A4FF08271116009215160202261
:100290001A709A7902F00C020C2AFAD12D4B2E4AD0
:1002A0001A602E4B2E4A1A6000225A60072243F829
:1002B000042C2C4AC3F80C2D62B601F0B5FF154B87
:1002C0001B68DA0705D5284801F020FF274B284A8C
:1002D0001A60284B1B785B0609D5244C244B2268F6
:1002E0009A4204D1204801F011FF0023236004F05A
:1002F000C7FE01F0EDFD01F0B5FDFEE70E20054063
:1003000030800440823F04000100002B88ED00E0B3
:1003100010D0034014D0034002D0074000E0074053
:10032000E412FF1FEC5D0000F806FF1FE812FF1F3C
:10033000E419FF1F0002FF1F0000000000E400E0BE
:1003400056E400E008ED00E00050064000400640A2
:100350004480044004800440C010050014E000E024
:10036000BFD40100000020205ABDA15C1CE0034066
:10037000A5C3945A00F00740FFFFFFFFFFFFFFFFF8
:10038000FFFFFFFFFFFFFFFFFFFFFFFFFFFFFFFF7D
:10039000FFFFFFFFFFFFFFFFFFFFFFFFFFFFFFFF6D
:1003A000FFFFFFFFFFFFFFFFFFFFFFFFFFFFFFFF5D
:1003B000FFFFFFFFFFFFFFFFFFFFFFFFFFFFFFFF4D
:1003C000FFFFFFFFFFFFFFFFFFFFFFFFFFFFFFFF3D
:1003D000FFFFFFFFFFFFFFFFFFFFFFFFFFFFFFFF2D
:1003E000FFFFFFFFFFFFFFFFFFFFFFFFFFFFFFFF1D
:1003F000FFFFFFFFFFFFFFFFFFFFFFFFFFFFFFFF0D
:10040000FFFFFFFFFFFFFFFFFFFFFFFFDEF9FFFF23
:1004100010B5054C237833B9044B13B10448AFF33E
:1004200000800123237010BDE812FF1F00000000B0
:10043000F05D0000084B10B51BB108490848AFF348
:1004400000800848036803B910BD074B002BFBD0A0
:10045000BDE81040184700BF00000000EC12FF1F6D
:10046000F05D0000E412FF1F0000000008B502224A
:100470000449242001F0CEFD01F066FE024B186015
:1004800008BD00BF8D040000D014FF1F08B5032273
:100490000549242001F0BEFD01F056FE034B044A3D
:1004A0001B68C01A106008BD6D040000D014FF1F47
:1004B000A414FF1F08B502220449232001F0AAFD5D
:1004C00001F042FE024B186008BD00BFD5040000D9
:1004D0004815FF1F08B503220549232001F09AFDA6
:1004E00001F032FE034B044A1B68C01A106008BDBD
:1004F000B50400004815FF1F6014FF1F08B5022255
:100500000449222001F086FD01F01EFE024B186016
:1005100008BD00BF1D0500004015FF1F08B50322E0
:100520000549222001F076FD01F00EFE034B044A3E
:100530001B68C01A106008BDFD0400004015FF1FB5
:100540004C15FF1F08B502220449212001F062FD6D
:1005500001F0FAFD024B186008BD00BF6505000000
:100560006C14FF1F08B503220549212001F052FD3C
:1005700001F0EAFD034B044A1B68C01A106008BD75
:10058000450500006C14FF1FCC14FF1F70B51D4CF7
:100590009FED1D0A1D4E1E4D2DED028B204601F0D4
:1005A000C1F99FED1C0A9FED1C8A204601F0E6F977
:1005B00000231A462046012101F028FA1421204682
:1005C00001F022FA30469FED150A01F0ABF93046F2
:1005D0009FED130A01F0D2F91421304601F014FA0C
:1005E000B0EE480A284601F09DF92846B0EE480AC8
:1005F00001F0C4F9BDEC028B28461421BDE870401F
:1006000001F002BA6013FF1F00401C461013FF1FC9
:10061000E414FF1F00409C46C0E1644B0050C347F8
:1006200000504348FFFFFFFFDFED137A70EE277A9B
:1006300008B517EE900A04F0A1F99FED0D1B41ECEF
:10064000100B03F0C5FB51EC100B04F0C3FC07EEDC
:10065000900AF5EEC07AF1EE10FA48BF9FED077AE6
:100660009FED050A48BF77EE877A37EEC00A08BDCE
:100670000000000000807640000034430000B443D6
:1006800008B519482DED028B01F0A0FA174B9FED2C
:10069000187A1B8880B207EE900A00EE103AF8EE46
:1006A000E77AB8EEC00A97EE870AFFF7BDFF0E485B
:1006B000B0EE408A01F0CCF920B9B0EE480ABDECAA
:1006C000028B08BD084801F085FA002301460A2282
:1006D000084801F07FFB074801F06CFBBDEC028B82
:1006E0009FED050A08BD00BFB813FF1FA814FF1F28
:1006F000D002B43CEC09FF1F00C07944F8B50021DA
:10070000242001F01BFD0021232001F017FD002112
:10071000222001F013FD0021212001F00FFD032212
:1007200019491A4F1A4D1B4E1B4C242001F072FC24
:1007300003221A49232001F06DFC032218492220CC
:1007400001F068FC03221749212001F063FCDFF867
:1007500064E015481549164A40F2D7333B60CEF89D
:10076000003040F2D77740F2D5732F60036040F23B
:10077000DB3740F2DC7540F2D93040F2DA73376093
:10078000256008601360F8BD6D0400006814FF1F49
:100790009C14FF1F5415FF1FB013FF1FB50400006A
:1007A000FD04000045050000B413FF1F6414FF1F83
:1007B0000413FF1F5015FF1F10B540F6B83001F0AD
:1007C000E5FCFFF7E3FE05212348244C02F03EFD43
:1007D000234801F0EFFAFFF791FF224B2248002255
:1007E0000E211A6000F078FD204801F021F9204B1D
:1007F0009FED207A1B88204A07EE903AF8EEE77AC0
:10080000012167EE877A1820FCEEE77A17EE903A1E
:10081000138001F093FC0121192001F08FFC0121CC
:100820001C2001F08BFC01211D2001F087FC01211F
:100830001A2001F083FC01211B2001F07FFC2046DF
:1008400000F02AFF0146204600F028FF01210B4856
:10085000BDE8104000F092BBD45900006013FF1FA8
:10086000EC09FF1F7014FF1FFC07FF1FB813FF1FC9
:10087000F807FF1FD002B43CA814FF1FD013FF1FBE
:100880003E4A3F4B11681A683E4B501AB0F5966FBE
:1008900010B41B684BDD5B1A40F2B141421C01FBF6
:1008A00003F393FBF2F23849384B0C681868384967
:1008B000384B0A60011BC8291B6849DD1B1BC92274
:1008C000481C02FB03F393FBF0F06438324A334BCD
:1008D00011681B68324A334C1060581A41F2883252
:1008E000904223682BDD5A1A41F28931431C01FBE7
:1008F00002F191FBF3F3A3F59C53083B2A492B4AE1
:10090000086812682A4C2B492360801AB0F5B47F1E
:100910000B6825DC9B1A4FF4B47202FB03F292FBC6
:10092000F0F3254A5DF8044BB43B136070475A1A44
:100930004FF4966303FB02F393FBF0F2B3E75B1A09
:1009400002FB03F292FBF0F3A3F59C53083BD5E7BF
:10095000181BC82303FB00F393FBF1F06438B5E7E1
:100960009A1A40F2691101FB02F2431C92FBF3F365
:10097000114A5DF8044BB43B136070475015FF1FDC
:100980009C14FF1FA414FF1F6814FF1FB413FF1F44
:10099000C813FF1F6014FF1F5415FF1FB013FF1F64
:1009A000A014FF1F4C15FF1F0413FF1F6414FF1F2B
:1009B0009814FF1FCC14FF1F7014FF1F2DE9F84F70
:1009C000FFF75EFF574B584893ED000A574DDFF88D
:1009D000A491574CDFF8A081DFF8A0B1554FDFF8A4
:1009E000A0A1554EB8EEC00A00F04EFB534B544840
:1009F0001A68FDEEC07A17EE903A07EE902AB8EE2C
:100A0000E70A2B6000F040FB4E4B4F481A68FDEEA2
:100A1000C07A17EE903A07EE902AB8EEE70AC9F8C6
:100A2000003000F031FBBDEEC00A84ED000AFFF794
:100A300027FE2168454CD9F8002087ED000A01F512
:100A40009C534FF0650E08330EFB03F384FB030445
:100A50001C44DB17C3EB24340EFB02FE3C4BD8F8DE
:100A60000000CAF800208BFB0EC9A4F1640B2C68AF
:100A70001C60C31C4FEAEE7E9A423160CEEB6919CE
:100A800046DC0338824243DBDFF8F880D8F80030D8
:100A9000DA1C8A4202DB033B8B4205DD2D4800F065
:100AA0008BFE3368C8F800302B48DFF8DC802B4E13
:100AB00000F0DAFE274800F0D7FE386803F05EFF4A
:100AC000C8E90001286803F047FFC6E9000124488F
:100AD00000F094F9234BD3E9000104F07BFA00EE17
:100AE000100A214800F052FF1F4800F0CFFD494690
:100AF0001E4801F0AFF901211D4802F0A7FB59463D
:100B00001A4801F0A7F91948BDE8F84F01F052B9A9
:100B10001146114800F050FEDAF800303168C8F88C
:100B20000030B1E77014FF1F5815FF1F5C14FF1F42
:100B30004C14FF1FE014FF1F5814FF1FC813FF1FA2
:100B40007814FF1F9814FF1FAC14FF1F1F5BACD15C
:100B50004415FF1F1013FF1FE414FF1FD814FF1FBD
:100B6000D013FF1F0813FF1F6013FF1FEC09FF1FA7
:100B70002C5A00004814FF1F5014FF1FE92BD20607
:100B80005414FF1F7414FF1F3815FF1FF0B52DED0F
:100B9000028B2A4C2A4F2B4E2B4B2C4A2C492D488A
:100BA0009FED2D8A2D4D85B094ED000B002497ED1F
:100BB000002B96ED001B052704260094012400F06D
:100BC00011F9214602948DE8C00018231922244807
:100BD00000F066FE214602948DE8C0001A231B2215
:100BE000204800F05DFE1C231D22214602948DE862
:100BF000C0001D4800F054FE2146F0EE480A95ED75
:100C0000000A1A4800F0EEF9F0EE480A95ED000AE5
:100C10001748214600F0E6F92146F0EE480A95ED26
:100C2000000A144800F0DEF913480F2105B0BDECAE
:100C3000028BBDE8F04000F0EFBE00BFF007FF1FE1
:100C4000E007FF1FD807FF1FD814FF1F0813FF1F5F
:100C50003815FF1FD013FF1F00000000E807FF1F1B
:100C60006013FF1FE414FF1F1013FF1F5815FF1F11
:100C70007814FF1FAC14FF1FB813FF1F2DE9F047B6
:100C80000C994163DDE908899DED0A7B1D46A1F1C0
:100C90000103B3FA83F314465B09824680ED047BBB
:100CA000C0E9028980F87130C0E90045806D03F029
:100CB00043FE00221C4B03F0DFFF06460F46324680
:100CC0003B4640464946CAE9064503F0ABFE80462E
:100CD00089463B463246CAE90889DDE90A0103F044
:100CE000CBFFDAF8303006460F46012BCAE90A6717
:100CF00017D122462B460020002103F0DFFC42469C
:100D0000CAE906014B460020002103F0D7FC324619
:100D1000CAE908013B460020002103F0CFFCCAE9E4
:100D20000A01BDE8F08700BF00408F40FFFFFFFFD2
:100D30002DE9F04F2DED048BB0EE418AF0EE618A83
:100D4000B0EE429AF0EE629A044689B00FF28C0B34
:100D5000DBE900AB59EC108B002600270020E26392
:100D60006425179AA163236484F870002263C4E9A0
:100D70001AABC4E91867A56532463B4610EE100A67
:100D8000494604F0C1F8C8B932463B4651EC180B4D
:100D900004F0BAF890B932463B4651EC190B04F016
:100DA000B3F858B9169B04938DED029B8DED008B23
:100DB00042464B462046FFF761FFA56D064B1B6878
:100DC0000793079B20465D1B656409B0BDEC048B4F
:100DD000BDE8F08FAFF300809815FF1F0000000002
:100DE00000E06F4010B582B0049C0194012400948F
:100DF0000446FFF79DFF204602B010BD2DE9F04FDD
:100E000090F870508DB0002D00F0A4805A4A436CC9
:100E100012680B920B9A03921146826DCB1A934281
:100E2000C0F09880826B036C92ED007B59EC178BBD
:100E3000044617EE102AD3E900014B468DED007BE6
:100E400003F03CFCD4E9142306460F4640464946CD
:100E5000CDE9066703F032FCD4E9082381468A46CF
:100E600030463946CDE9049A03F0DCFDD4E912237B
:100E700003F026FC94F8718006460F46C4E9126719
:100E8000B8F1000F0FD1D4E906234846514603F0CC
:100E9000C9FD02460B463046394603F00FFC0646B4
:100EA0000F46C4E91267D4E91AAB32463B465046B6
:100EB000594604F029F8002851D194ED187B3246A8
:100EC0003B4651EC170B8DED087B04F03BF828B145
:100ED0009DED087B84ED127B57EC176BB8F1000F8A
:100EE00044D0DDE90601D4E9062303F09BFD8046EA
:100EF0008946D4E90A23DDE9040103F093FD0246A3
:100F00000B463046394603F0D9FB42464B4603F0C8
:100F1000D7FB06460F4602460B465046594603F09D
:100F2000F3FF50B9D4E918AB3046394652465B4618
:100F300003F0EAFF08B9B246BB46E36B9DED007BC8
:100F4000C3E900AB039B6364284684ED147B0DB0BA
:100F5000BDE8F08F002528460DB0BDE8F08FC4E94C
:100F600012AB56465F46B8F1000FBAD14FF00008F9
:100F70004FF00009BDE700BF9815FF1F01292DE9BB
:100F8000F84304460CBF0125002503D084F87050B7
:100F9000BDE8F88390F87030002BF7D1C26B836BFB
:100FA000D2E90067C0E91267D0E91A89D3E90023C2
:100FB0003046C4E91423394642464B4603F0C2FF8B
:100FC00048B9D4E918893046394642464B4603F0C1
:100FD0009BFF0028DAD0C4E9128984F87050BDE87C
:100FE000F88300BF9FED0D7ADFED0D6A20EE070A52
:100FF000B7EE007AC7EE007A10B501700446C0ED76
:10100000030A67EEA67AC0ED040AC0ED050AC0ED3A
:10101000017A01F099F8E061204610BDDB0FC9406C
:10102000002474490378032B27D8DFE803F01F1C42
:101030001102D0ED015A9FED126AD0ED057AD0ED84
:10104000036A85EE867A77EEE67A87EE870A70473E
:10105000D0ED016A9FED0A7A90ED030AC6EE877A19
:1010600027EE800A704790ED030A7047D0ED057AAD
:1010700090ED030A37EEC00A70479FED020A7047F1
:10108000002474490000000010B504462DED028BC9
:10109000B0EE408A01F058F8E36994ED016AE26825
:1010A0002261C31A07EE903AF8EEE77AFFEE006A83
:1010B00086EE277AE061C4ED067AC6EE877A84ED83
:1010C000027A17EE900A84ED058A03F057FC41EC92
:1010D000100B02F0F9FD51EC100B03F07BFFD4ED87
:1010E000047A94ED056A06EE900AB7EE007A66EE91
:1010F000A77A37EE667ABDEC028BE7EE067A2046D9
:10110000C4ED037ABDE81040FFF78CBF10B4047F34
:101110004160022CC26003D05DF8044B00F05EBD5C
:1011200083685DF8044B1847F0B4464B464A186B89
:10113000DC6A01791170454922790A709A6A00794E
:101140000870002A46D05968C9688A423ED821688A
:10115000CC8B240402F1FF3065D4C0F30E00C883A9
:10116000C88B80B2C882196B0968C88B000452D43E
:10117000C2F30E00C883C88B002480B212F1FF3284
:10118000C88218BF01229C62D96A2E4809680D687E
:1011900000F12404A54236D00068C46814F0804FE2
:1011A0000C680D6815BF248824780235013544F099
:1011B00000440D604463196B254B0979197021496E
:1011C00012B1CA6A12791A70F0BC7047521A9A6248
:1011D0000122D9E7586B196805681E4C0A63CC6276
:1011E000CC682D681C4E24F080440327B542CC60A7
:1011F00083F825701FD1037F4260022BC2601ED08E
:10120000F0BC00F0EBBC016890F82400CC6840F022
:1012100000404863CFE7CC8BC2F3080004F47E445F
:101220002043C883A7E7CC8BC0F3080004F47E44B6
:101230002043C88394E72B461146F0BC18478368C7
:10124000F0BC1847FC07FF1F1F8000401C800040B7
:101250001B80004000000FFF0D11000090E80C0003
:10126000F0B41C6859682568164F174E2943216051
:10127000164D17491760D66015611160417A154AFD
:101280005C180C3194F82C4053F8215002EBC40147
:1012900049680D60017A5C1803EB8101247ECD69F9
:1012A00002EBC40149680D60817A581803EB810391
:1012B00090F84000596C02EBC002F0BC5368196012
:1012C000704700BF01401F00011000380110007876
:1012D00000001F80FC5A0000284A43689A4270B4FC
:1012E00015D0827A1A4492F8402091420DD093F89A
:1012F00040408C423FD093F841408C421DD093F83F
:1013000042408C4208BF022118D070BC70470D29A2
:101310002BD00E2909D01B29E3D1194C227822F0B9
:10132000300242F020022270DBE7154C227822F0D6
:10133000300242F010022270D3E701211D685C6880
:101340002D6825420FD00F4C04EBC20200265568D1
:101350005A182E6092F8402004EBC20403EB81037C
:1013600062685B6C13608172CFE7054C227822F0D3
:1013700030022270B5E70021E0E700BF305A0000DC
:101380009415FF1FFC5A00004379082B1BD8DFE897
:1013900003F0080B0E11141A171A050003689B6A54
:1013A000184703681B69184703685B691847036897
:1013B0009B6918470368DB69184703681B6A18476D
:1013C00003685B6A1847704702790368002A10B502
:1013D000044614BF022100219B68984722792368A4
:1013E000002A14BF032101219B6820469847236BE4
:1013F00003EB8303DB0001D0013BFDD1227923689D
:10140000002A204614BF022100219B68BDE810403D
:10141000184700BF144B83FB0123A3EBE17303EBDD
:101420004303A1EB4303052B1CD8DFE803F0070BB4
:101430000F131703036806219B68184703680421EC
:101440009B681847036805219B68184703680121BA
:101450009B681847036803219B68184703680221AB
:101460009B681847704700BFABAAAA2A01F0070182
:101470000139062909D8DFE801F00C1014181C0402
:101480002000036808219B681847036801219B68B6
:101490001847036805219B681847036804219B6867
:1014A0001847036806219B681847036802219B6858
:1014B000184703680A219B681847036809219B683D
:1014C000184700BFF8B54679042E0F4607D0082EFE
:1014D00017D0032E03D0062E0CBF03260226451D6F
:1014E000002415F8010F47FA04F32979DB0748BFF8
:1014F00081F00101013400F01BFEE3B29E42F0D8FE
:10150000F8BD0426EBE700BF10B504460121807941
:1015100000F014FEE079012100F010FE6379042B45
:101520001FD0082B1DD0032B12D0062B10D094F8FF
:101530003500FF2814D0012100F000FE94F834108B
:1015400094F8350081F00101BDE8104000F0F0BDD5
:10155000207A012100F0F2FD94F83500FF28EAD14D
:1015600010BD207A012100F0E9FD0121607A00F030
:10157000E5FDDCE7437903B97047FFF7C5BF00BF5E
:1015800038B5044600F0E0FDE36AA26AC31A93424C
:101590000FD323792169054643B9013921612368B5
:1015A0002046DB689847E562012038BD01312161A2
:1015B000F5E7002038BD00BF01F0030102290368F0
:1015C0000CD0032907D0012902D002219B681847BB
:1015D00003219B68184700219B68184701219B68DD
:1015E000184700BF427902B97047036810B5044636
:1015F00000219B68984794F83500FF280AD0012104
:1016000000F09CFD94F8341094F83500BDE81040CB
:1016100000F08EBD10BD00BF01F003010229036878
:101620000CD0032907D0012902D005219B68184757
:1016300006219B68184709219B6818470A219B6867
:10164000184700BF0A4B83FB0123A3EBE17303EBB5
:101650004303C91A0129034603D0022901D019B155
:1016600070471B689B681847036804219B681847EC
:1016700056555555D0ED067AF5EEC07AF1EE10FAD2
:1016800001DD836B1847C36B184700BF836A0BB932
:1016900018467047FFF774BF0069704700230022A7
:1016A00001614161826103648362704790ED067A53
:1016B000D0ED087A4369026977EEA77A27EE077AB8
:1016C0009B1AC7EE276A002B10B4FDEEE67A17EEE0
:1016D000901A20D101295CDD026C002A4ED1002B2A
:1016E000D0ED117AD4BF002301230371C0ED127A2B
:1016F0000022BCEEE77ADFED2F6A80ED0A7A013234
:10170000026486EEA77A0BB9B1EE477A80ED067ACD
:101710005DF8044B7047026C24DD002A30DD9942ED
:1017200028DA047934B3234607EE902AF8EEE76A04
:10173000B7EE007AF1EE007AA6EEA77AD0ED127A33
:10174000D0ED136A77EEA75A85EE876A77EEC67AF0
:10175000F4EEE67AF1EE10FAB8BFF0EE667AC0ED7C
:10176000127AC6E7002A19DD5C42A14202DA047946
:10177000002CD8D04A420264002AB0D00479D2E7C3
:10178000ADD0994213DA04792346002CCCD05242D2
:10179000C9E70022836203648261B9E79FD05B429C
:1017A000994204DA04792346002CBDD1EFE703798E
:1017B000BAE700BF0024744942698A4202D04161FD
:1017C000FFF774BF704700BF10B5B5EEC00AF1EE69
:1017D00010FA90ED087A2DED028BB0EE408A48BFEA
:1017E000B1EE408AB4EE487AF1EE10FA044602D126
:1017F000BDEC028B10BDC7EE086AD0ED107AF8EE92
:10180000E77AB0EE007A67EEA67AC7EE086AFDEED8
:10181000E77A16EE900AC4ED107A03F0AFF841ECC7
:10182000100B02F041FB0CA3D3E9002351EC100B89
:1018300003F0F8F80AA3D3E9002303F0F3F803F068
:10184000C9FB84ED088ABDEC028B60642046BDE8CC
:101850001040FFF72BBF00BF000000C0CAA1E53F4A
:101860000000000080842E41836A10B5044673B9DD
:10187000D4ED067AF5EE407AF1EE10FA05D16369FF
:101880002069181A18BF012010BD012010BDFFF7F4
:1018900077FE0028ECD02046FFF708FFE8E700BFFE
:1018A000F8B501278271C3719DF818209DF820605A
:1018B000DFF86CE00763FF2300259DF81C7080F8BB
:1018C0003530027200234FF07E5204464171C0F859
:1018D00000E04772036143618362C36280F8343081
:1018E000036403718372C37203734373856105627A
:1018F00045648564C2614262C26406B131B9204662
:10190000B7EE000AFFF760FF2046F8BDFFF7FCFDC9
:101910002046B7EE000AFFF757FF2046F8BD00BF8C
:10192000CC5A0000B5EEC00AF1EE10FAD0ED077AFD
:1019300048BFB1EE400AB4EE670AF1EE10FA1AD0D1
:101940009FED0D7A026C80ED070AC7EE007A002A3F
:10195000C0ED137A0FDD90ED067AD0ED087A27EE10
:10196000077A77EEA77AC7EE276AFDEEE66AC0ED42
:10197000106AFFF79BBE704700247449B5EE400A19
:10198000F1EE10FA01D0FFF71FBF7047D0ED067AD5
:10199000F4EE407AF1EE10FA18D0D0ED077AB1EEFD
:1019A000677AB4EEC07AF1EE10FA10DCF4EEC07A89
:1019B000F1EE10FA58BFF0EE407AF5EE407AF1EE13
:1019C00010FA0BD100238362C0ED067A7047F0EE67
:1019D000477AF5EE407AF1EE10FAF3D0DFED096ABE
:1019E00086EEA77AF5EEC07AB0EEC77AF1EE10FA7D
:1019F000BCEEC77ACCBF0123002380ED0A7A0371C5
:101A0000E2E700BF00247449016370478272C1722B
:101A100080F83430704700BF10B4044CC46000221A
:101A20004170027082605DF8044B704703200038FB
:101A300008B5054BC3600121407800F07FFB0348E7
:101A4000BDE80840FFF70ABC0504003AFC07FF1F89
:101A50000078704741F48041F8B50A4604461023E7
:101A6000002012F0010F18BF013003F1FF3318BF3F
:101A7000C0B213F0FF034FEA5202F2D14A4DE268BE
:101A8000EB7A00F0010041EAC036370AEBB172B6DA
:101A9000EB7AD807194609D5DFF828E1E868DEF8BF
:101AA00000100140A961CEF800101946980709D529
:101AB000DFF814E12869DEF80030E97A0340EB61D1
:101AC000CEF800304B0767D462B62B68D9689142D4
:101AD00007D0364818603649DA6042F08040186115
:101AE00019600021607800F023FB2B68FFB24FF0F3
:101AF0000042DA625F63DA6A002AFCDAF0B24FF081
:101B00000042996BDA625863DA6A002AFCDA012132
:101B100060789B6B00F00CFB4FF4C873013BFDD168
:101B20000021607800F004FB2B684FF00041002298
:101B3000D9625A63DA6A002AFCDA4FF000410022C7
:101B40009E6BD9625A63DA6A002AFCDA0121607856
:101B50009F6B00F0EDFAEB7A13491A4683B1D80770
:101B600003D5144A896911601A46990703D5124BA7
:101B7000E969EA7A1960530702D5104B2A6A1A609C
:101B800016F040034FEA062618BF012306F47C56E0
:101B9000F8B223703043F8BD09496B690868034007
:101BA0002B620B6090E700BFFC07FF1F01403F0066
:101BB00000003F8000E100E004E100E008E100E017
:101BC00088E100E080E100E084E100E043F6FF719D
:101BD000FFF740BF0121FFF73DBF00BF10B4EFF397
:101BE000108272B6437F33B9017F012908D00329DF
:101BF00010D00123437702B962B65DF8044B7047F9
:101C0000114C2168A1B1114943610B6883610860DF
:101C10005861EEE70E4C216881B10E4943610B68B3
:101C20008361086058610C4B4FF080511960E0E708
:101C3000064B4161816120601860DAE7054B416124
:101C4000816120601860EEE78815FF1F8415FF1F73
:101C50007815FF1F7C15FF1F04ED00E070B5EFF352
:101C6000108272B60C4C206880B10C4E002543697E
:101C7000236073B19D6102B962B645778368984766
:101C8000EFF3108272B620680028F0D102B962B674
:101C900070BD3360EFE700BF7815FF1F7C15FF1F95
:101CA000FFF7DCBF184A30B41468002C27D0036853
:101CB00021688B420ED2CB1A00218460C160236060
:101CC000E06010600223037530BC704711688B42DE
:101CD000144608D3A2685B1A0360002AF6D182601A
:101CE000C460A060EEE7D268C2608460E060C5684E
:101CF000CB1A0222A8602360027530BC7047846052
:101D0000C4601060DEE700BF8015FF1FF8B5224EEB
:101D100034682CB32368002B3AD1204F1D4604E0D1
:101D20003468ECB12368002B32D1A36803B1DD60C5
:101D300020693360036825751B68BB4221D1037F8E
:101D40004560022BC46020D0FFF748FF6368002B7A
:101D5000E6D023602046FFF7A5FF3468002CE1D1D0
:101D6000EFF3108372B60E4A00211068116003B9B8
:101D700062B628B18468FFF795FF20460028F9D1A4
:101D8000F8BD224600219847E0E783689847DDE7E1
:101D9000013B2360E4E700BF8015FF1F0D11000029
:101DA0009015FF1F024A136801331360FFF7AEBF9F
:101DB0009815FF1F00B5064A036812885B6883B058
:101DC00001A9ADF804200222984703B05DF804FB96
:101DD000F85A0000F0B507468BB0002A33D0012A2C
:101DE00008BF0A2251B3212400E0F4B2B1FBF2F59E
:101DF00002FB1511C8B2092900F1300198BFC8B221
:101E00000AA988BF3730214488BFC0B201F8240C2A
:101E1000661E2946002DE8D133B1013CE4B20AAB7D
:101E200023442D2203F8242C3B6801AA11195B6876
:101E30003846C4F1220298470BB0F0BD30228DF82D
:101E400025202124E8E70368C9B21B6898470BB036
:101E5000F0BD00BF0029BABF49422D2300230A224A
:101E6000FFF7B8BF08B5FEF7A7FCFEF7A7FD01F026
:101E7000F1FAFAE708B5104C08E0236859050DD4CB
:101E800023681A050FD42368DB0411D42368580390
:101E9000F3D500F037FB23685905F1D501F0C8FBF5
:101EA00023681A05EFD501F059FC2368DB04EDD552
:101EB00001F0EAFCEAE700BF3480044008B5FFF710
:101EC000D9FF00BF014B10221A8070470020054047
:101ED000704700BF094908B50B6830B16A4618441D
:101EE000A2F50052904202D20860184608BD03F0E5
:101EF000C1F80C2303604FF0FF3008BD3408FF1F0A
:101F0000F0B44D1E2E46002400E00134B0FBF2F385
:101F100002FB1300092800F130078ABF3730F8B2FE
:101F2000C0B206F8010F1846002BEED10A19537003
:101F30004CB1107815F8016F28700133E01A834214
:101F400002F80169F5DB0846F0BC7047704700BF36
:101F500010B4114B53F8302092F8804234B1012371
:101F600079B182F880305DF8044B704703EBC00311
:101F70005B681A6851B922F002021A605DF8044BDE
:101F8000704782F800315DF8044B704742F003025D
:101F90001A605DF8044B7047FC5A00001C4A02EBC3
:101FA000C00301295B6811D004291BD052F830000E
:101FB000002280F8802229B1022920D0032922D0D2
:101FC0001A6070474FF480721A60704752F8300000
:101FD0004FF4A27280F880121A601A6822F0200270
:101FE0001A60704752F830104FF4A272012081F845
:101FF00080021A601A6842F020021A60704740F2AC
:1020000003121A6070474FF481721A60704700BF64
:10201000FC5A00003F2848D8F8B5042A44D8DFE825
:1020200002F0484B4E0345004FF410262B4B03EBB8
:10203000C0030D465C68216811F4E06148D0284B6C
:10204000284A2949C3F82C2104F140422748C3F803
:102050003411A2F59221264FC3F830017C2925487E
:10206000C3F83871C3F83C012CD9A2F594237C2B1A
:102070002AD9A2F596237C2B28D9A2F598237C2B6C
:1020800029D9A2F59A227C2A27D81B4872B6236840
:1020900023F4702343F08072C4F384011643236059
:1020A00040F82150266062B6F8BD70474FF43026E4
:1020B000BCE74FF40026B9E74FF44026B6E74FF4EB
:1020C0002026B3E70D48E1E70D48DFE70D48DDE7DF
:1020D000FFF764FFB3E70C48D8E7F8BDFC5A0000EF
:1020E0000002FF1FA907FF1F5107FF1F7D07FF1FEA
:1020F0002507FF1FF906FF1F8009FF1F3808FF1F74
:10210000B008FF1F1009FF1F4009FF1F30B4054B27
:10211000054D064C002210211A602A6020601960CB
:1021200030BC704714D0034004D0034000D00340BB
:102130003F2801D8FFF70CBF704700BF3F2801D8E8
:10214000FFF72CBF704700BF72B60C490C4B0D4A0D
:102150001B680868126862B6520102D5322B88BF2C
:1021600001300949C3F5EA334FF47A72BF33A1FB5A
:10217000031302FB00F000EB931070479815FF1F4C
:1021800018E000E004ED00E0898888882DE9F84334
:10219000054672B6204F214B214A1B683C681268E5
:1021A00062B6520102D5322B88BF013495B3C3F514
:1021B000EA331C4EDFF86490DFF86480BF334FF4DD
:1021C0007A72A6FB031302FB04F404EB931472B6B9
:1021D000D9F800103A68D8F800E062B6C1F5EA33E1
:1021E000BF33A6FB03031EF0806FC4EB93134FF4C1
:1021F0007A7002D0322988BF013200FB0233B3F576
:102200007A7F04D3013D05D004F57A74DFE701F04D
:1022100021F9DCE7BDE8F8839815FF1F18E000E01E
:1022200004ED00E089888888F8B53E4B3E49DFF828
:1022300018C13E4E3E4ADFF814E13E4D3E4C3F4F42
:102240004FF0006018604FF0805018604FF0005061
:1022500018604FF0804018604FF000401860002078
:10226000086028234EF6FF71CCF80010CEF800303D
:1022700033600EF5012E13602B60236005F50025F9
:102280003B6004F50024B36207F50027936206F56E
:10229000012602F501220EF1100E05F6E87504F68E
:1022A000E87407F57F67103220362B602360CEF884
:1022B00000303B6013603360214EBB6193610922A3
:1022C0003260A7F5002706F58056203F08363860B3
:1022D0003160BB60F36047F8042C06F5FD2607F576
:1022E000FE2706F2FC76043730603960B360FB608D
:1022F00046F8042C0836C7F8FC0F06F6FC761148A1
:1023000031602B602360026001F012F91920FFF7A1
:102310003DFF00F05FFE40F21310BDE8F840FFF70C
:1023200035BF00BF04E100E0048003401480034097
:102330001C800340248003402C80034034800340F1
:102340000080034000900B40088003400C80034055
:10235000431E032B14D872B60A4951F8230068B102
:1023600070B4094C058834F81320466841F823609E
:10237000521B24F8132062B670BC704762B67047D7
:1023800000207047F415FF1FCC19FF1F01380328E8
:102390000BD872B6074B53F8203043B100205B686E
:1023A0000130002BFBD162B6704700207047184601
:1023B000F9E700BF4816FF1F30B472B62B4A1378F6
:1023C0001D0706D52A4B196A002936D0996A0029BB
:1023D00041D053781C0706D5254B196C00293ED0F7
:1023E000996C002939D09378190705D5204B196EBF
:1023F000002936D0996E89B1D3781B0707D51C4BBD
:10240000D3F880207AB3D3F8882011213AB162B68C
:10241000184B00221A7030BC00F08CBE0D21154CF8
:10242000154D227843F8315003EBC1030830013ACF
:102430005860227062B630BC704704220D4C0F4DBC
:10244000217843F8325003EBC20308304A1E58602B
:10245000227062B6EFE70521E1E70921DFE70822F4
:10246000ECE70C22EAE71022E8E700BF245D000059
:102470000000FF1F7116FF1FC800400088004000C9
:10248000431E032B1DD81B4A400140F0100030B4FE
:10249000104472B6184CE25C032A1BD8DFE802F045
:1024A0000212151703220D88E25410F0080F14BF12
:1024B000C823882343EA054308310360416062B6BC
:1024C00030BC704708300222EDE70522EBE7083008
:1024D0000422E8E7094A52F8230038B1084A52F8C2
:1024E0002300416042F8231062B6E9E742F8231066
:1024F000034AF7E70000FF1F8016FF1F4816FF1F63
:102500005816FF1F2DE9F04FDFF80CB3DFF80CA3CE
:1025100087B044E0AB4F4FEA930807EBC809013E90
:10252000D9F8042003F00803F6B2A2F1080003F082
:10253000FF04002B40F0028157F838301B0C99B291
:1025400022F8081C002B00F0F0809F4B22F8064C6C
:1025500042F8044C53F82620002A00F0C5829B4D17
:1025600055F8263058609A4C45F8260034F8163055
:10257000194424F8161000F0BDFD002800F0AD82CB
:10258000944A954B19F0080F00F1080018BF134644
:10259000C9F8040047F8383008238BF800309BF85E
:1025A0000040E4B261071AD58C4B1B78A3B18C496B
:1025B0000A7802F0FF0322B1013BDBB20B7003B9D2
:1025C00000BE88490A7802F0FF032AB1013BDBB262
:1025D0000B70002B00F0578204238BF8003004F0BE
:1025E000080303F0FF02002B00F0CC809AF80030C3
:1025F000DBB21E098ED19C08DFF8C89159F834204F
:1026000009EBC401C2F38302013A49680C2A00F2C3
:102610008880DFE802F07C7C868686868686478610
:10262000868607000868704D4A68704F704E2860B3
:1026300081B240F28160674B6A604FF0010E002268
:10264000814249F834303A60C9F81020C9F818209E
:1026500086F800E05B4C00F2E380B1F5D06F80F0CB
:102660004683B1F5817F00F0FC8200F28D828029E3
:1026700000F07783822940F0FA82A98801F07F0177
:10268000042900F2F4825B485B4C89000844227004
:1026900062700278930740F1588484F800E04FF0AC
:1026A000020E42E3514F3A6832B3544B504E5449F4
:1026B000188834780D784028864645F0020828BFEF
:1026C0004FF0400E002C84F001043470CEEB00007B
:1026D0000CBF8824C82409EBC80680B285F0010528
:1026E00044EA0E447260188049F8384072440D7014
:1026F000002800F045813A603B4B1A88B2F5A06F84
:102700000FD100219A7859703E4B1A7009E0364A71
:10271000108842F22102904200F037812D4A49F898
:102720003420394A0123137036E72A4A2A4B19F01C
:10273000080F18BF134647F838302DE700F0FAFCB1
:10274000324A334952F82630002B00F0D1815868C4
:102750008C5D42F8260003F10802C9F80420032C1E
:1027600005D8DFE804F02C02292602228A551A88AF
:1027700019F0080F0CBF8823C82343EA024347F827
:10278000383009E7E00700F18181210600F1F2818C
:10279000A20706D51F4A204913780220DBB2137026
:1027A0000870E30602D51C4B10221A7007B0BDE872
:1027B000F08F04228A55DAE705228A55D7E70322EB
:1027C0008A55D4E70000FF1FF415FF1FA015FF1F57
:1027D000CC19FF1FC8004000880040007C16FF1F76
:1027E0000516FF1F8416FF1F6816FF1F9C15FF1F8D
:1027F0000416FF1FC02007407416FF1FB015FF1FEF
:102800007016FF1F98200740942007404816FF1FAE
:102810008016FF1F88200740802007409020074037
:1028200042F22100814200F02A8100F2D880B1F505
:10283000086F00F07682B1F5106F40F01882226ABE
:10284000B349A8780870120600F13A83D9F8282015
:10285000B049130600F10C83D9F83020AD491506B4
:1028600000F10183D9F83820AA49140600F1F68254
:10287000D9F84020A749100600F14A83D9F848202A
:10288000A449120600F13F83D9F85020A14913064C
:1028900000F13483D9F858209E49150600F12983A8
:1028A000D9F860209B49140600F11E83D9F86820EE
:1028B0009849100600F11383D9F870209549120643
:1028C00000F10883D9F878209249130600F1FD82BF
:1028D000D9F880208F49150600F13183D9F8882076
:1028E0008C49140600F12583D9F8902089491006F7
:1028F00000F11983D9F898208649120600F10D835A
:102900008548864A864901908648874D874C0497BA
:1029100000230596029580460F4616461D460394F1
:10292000306828B1446800F005FC2046002CF9D13D
:1029300000233360029B38681A46002342F8253092
:1029400028B1446800F0F6FB2046002CF9D10022A3
:102950003A60019A98F800301146002241F8042BA1
:10296000039A0191023B4FF0000122F81510032B4E
:1029700000F22B81DFE813F07001250170012501C1
:10298000BEF1400F18BF0022B5E6694A0D784878BD
:10299000157050708D78C8789570D07010680D796A
:1029A000157186284D7989795571917100F09B8157
:1029B0006049614E0A78307882F00105002842F0C3
:1029C00002020D700CBF8821C82149F8321009EBB2
:1029D000C20280F001000021307051609EE642F298
:1029E0002120814240F0CB81544B554C5549A87869
:1029F0001D682560CDF804E0087000200290804634
:102A0000844604464B490D7845F0020E09EBCE038F
:102A10000393019B002B039B5C600CBF8824C8249C
:102A200044EA080385F0010449F83E3032700C7026
:102A3000DFF8E0E0404BDFF8FC80002840F01E812A
:102A4000BCF1400F1BD144F0020C09EBCC03029CFB
:102A5000DFF8C0E05C60002A40F02681020442F00A
:102A600088029DF804304EF83C20044433700D7009
:102A70002346402803D10020334A3B601080334A6C
:102A8000012313704DE600F0C1FCA5E5214B2F4852
:102A900028491A614FF0020E80F800E02C4F0A70AE
:102AA0002C49196099602C4E2C4D2D4C9A610D21AA
:102AB0003970FF213170DFF8B8E029702270294D9C
:102AC000294A8EF800109F27012406F8047C5D60D7
:102AD0000470DA6007B0BDE8F08F244A47F8380088
:102AE00013780133137057E543F826000E4D3AE58D
:102AF0008B5D032B00F2F08001A252F823F000BF9F
:102B00009925000099250000BD2B0000B72B00007F
:102B10007C16FF1F0000FF1F5816FF1FF415FF1F34
:102B20004816FF1F8016FF1FA015FF1FCC19FF1F9F
:102B3000D419FF1F7016FF1F0416FF1F9815FF1FE3
:102B4000DC19FF1F9416FF1FB015FF1F94200740CC
:102B5000C0200740880040008820074080200740B0
:102B600098200740B415FF1F0816FF1F7116FF1F9E
:102B70008C200740C149C24B80220D2008701A707A
:102B8000A2077FF50EAE05E640F20232914240F018
:102B9000EE80A98801F07F01042968D86A88002A9C
:102BA00065D1B648CDF804E089000844017841F0C9
:102BB0000201017021E701238B55EDE400238B55C1
:102BC000EAE44FF0010388F800300135042D06F1E6
:102BD000040607F1040708F101087FF4A1AEA94C2F
:102BE000A94B2278A94D049F059E002129701A70D7
:102BF000130700F105816278A549DFF8A0820A7009
:102C000010074FF00001C9F83010C9F8381000F172
:102C1000E080A049A2780A700021C9F85010C9F8D4
:102C200058101107DFF8748200F10181E2789A49A7
:102C30009A4C0A7000211207C9F87010C9F8781070
:102C400000F1B08033780193002183F00102C9F8CC
:102C50009010C9F89810D0E64FF0000388F80030C3
:102C6000B3E7A98801F07F01042940F28D80834AEF
:102C70000F2313708A4A0123137052E540287FF610
:102C8000E2AE44F002040EEBC401029E4E60BAB103
:102C90009DF80410834A19703346403888F8005074
:102CA00040334EF83420E7E69DF8043033700204D8
:102CB000029B0D7042F0C80203444EF83C20D8E657
:102CC0009DF804101970029B774A88F8005040382C
:102CD00040334EF83420CFE619F0080F0CBF022322
:102CE00003238B5558E4714A0F21117060E6704A36
:102CF0005468002CBBD06888B5F804E003E00C32BF
:102D00005468002CB3D013888342F8D1538873459C
:102D1000F5D1000A03280CBF94F800E0B2F808E0EF
:102D200003E0644A644C12782270E888704580F0B1
:102D30003F8162490D784028844645F0020E28BF45
:102D40004FF0400C04EB0C0309EBCE02029301237D
:102D50005460CCEB00004FEA0C4800220193C824D9
:102D60005EE6554C4FF0020E22706270DDE7B1F561
:102D7000A06F7FF47CAF0123002201933DE642F275
:102D800021329142F7D072E76A88002A7FF46FAF50
:102D90003A48CDF804E089000844017821F00201A6
:102DA00001702AE600F0A6F9002800F0EF80083054
:102DB0003D4AC4F88400C4F8802000F09BF9002844
:102DC00000F0DE800830374AC9F88C00C9F8882046
:102DD00038E700F08FF9002800F0C0800830324A50
:102DE000C8F84400C8F8402000F084F9002800F03A
:102DF000AF8008302B4AC9F84C00C9F8482008E7D2
:102E000000F078F9002800F0CD800830264AC9F893
:102E10002400C9F8202000F06DF9002800F0BC80E3
:102E20000830204AC9F82C00C9F82820E3E600F051
:102E300061F9002800F09E8008301B4AC8F8640041
:102E4000C8F8602000F056F9002800F08D800830A6
:102E5000144AC9F86C00C9F86820E7E6C86B08385E
:102E600000F068F904E5486B083800F063F9F9E40C
:102E7000C86A083800F05EF9EEE400BFC0200740E1
:102E800080200740245D0000C42007407116FF1F0A
:102E9000C8200740CC200740D02007400000FF1F7B
:102EA00094200740C8004000880040000516FF1F1E
:102EB000285D00007C16FF1F7416FF1F7016FF1F91
:102EC000606A083800F036F9C0E4C86F083800F0CE
:102ED00031F9FDE4486F083800F02CF9F2E4C86ECF
:102EE000083800F027F9E7E4486E083800F022F9C6
:102EF000DCE4C86D083800F01DF9D1E4486D0838ED
:102F000000F018F9C6E4C86C083800F013F9BBE407
:102F1000486C083800F00EF9B0E4D1F89C0008388D
:102F200000F008F9ECE4D1F89400083800F002F958
:102F3000E0E4D1F88C00083800F0FCF8D4E4D1F8D3
:102F40008400083800F0F6F8C8E44FF0020EECE612
:102F50002A78C9F8480001322A705AE62A78C8F857
:102F6000400001322A703FE72A78C9F86800013230
:102F70002A705BE62A78C8F8600001322A7061E79F
:102F80002A78C9F8880001322A705BE62A78C4F8EA
:102F9000800001322A7010E72A78C9F8280001322F
:102FA0002A7028E62A78C9F8200001322A7032E710
:102FB000BEF1400FF44628BF4FF0400C04EB0C0369
:102FC00002930123CCEB0E004FEA0C480022019340
:102FD00018E500BF2DE9F04100F036FE2F4C304BD4
:102FE0003048DFF8D880304F304D314EDFF8D0C058
:102FF000DFF8D0E000221A605A609A60DA601A6145
:103000005A619A61DA611A625A629A62DA621A63E2
:103010005A639A63DA631A645A649A64DA641A65C2
:103020005A659A65DA651A665A669A66DA661A67A2
:103030005A679A67DA67C3F880202168C3F884204A
:1030400041F480212160016841F040710160C3F3C7
:10305000072188F8001004F52834C3F307411B0E3C
:103060003970CC342B7000F12040FF238CF80030F5
:10307000104D8EF8003000F6041033700E49012315
:1030800008F8083C702622704FF40014102207F84C
:103090002C3C2E7004600A70BDE8F081348004403E
:1030A0000000FF1F00D80040B0200740B4200740B8
:1030B0001020074035E400E0082107409C2007402D
:1030C000802007408820074000F0A4B800F07CB8BA
:1030D00000F056B800F090B800F06CB900F046B9B6
:1030E0000846114600F0B2B8084600F033B900BFF8
:1030F000704700BF72B60D480268B2FA82F30B2B1C
:1031000010DC4FF00041D94022EA0102026062B6B1
:10311000074803EBC303DB00C2180021C15010466F
:103120005160704762B60020704700BFFC09FF1F66
:103130009803FF1F0D4B0E4AC31AA2FB03231B0962
:103140000B2B0CD80B4A127852B972B60A484FF0C2
:103150000041026821FA03F31A43026062B6704725
:10316000064A1278002AF0D0FFF726B99803FF1F0D
:10317000398EE3387116FF1FFC09FF1F7C16FF1FF5
:1031800038B50F4D286878B143880288C1180133DB
:1031900093420C7A02D24380204638BDFFF7CAFF23
:1031A000002320462B6038BD064B1B782BB1032033
:1031B000FFF7CEF828600028E6D14FF0FF3038BD89
:1031C0009016FF1F7C16FF1F10B5094C206818B120
:1031D00043881844007A10BD064B1B782BB103209E
:1031E000FFF7B6F820600028F2D14FF0FF3010BD95
:1031F0009016FF1F7C16FF1F044B054A1B68908822
:103200001BB11A885B88D31A184470479016FF1FA9
:10321000CC19FF1F0B4B1B789BB110B50A4C2068D3
:1032200048B1FFF787FF002303202360FFF790F8E2
:1032300030B1FFF77FFF0320FFF78AF80028F8D1AD
:1032400010BD70477C16FF1F9016FF1F2DE9F04F31
:10325000DFF8F89083B0012289F80020019169B36A
:10326000DFF8EC80364F019E8346D8F80000B0B3FB
:10327000344D4488C4F14001B14228BF314604EBCB
:10328000010E00221FFA8EFE2A70761AA0F802E0C4
:1032900000F1080251B1013C224459441BF8014B92
:1032A00002F8014F8B45F9D1B0F802E0BEF13F0FB3
:1032B0000BD8254A05211170002ED6D10198002384
:1032C00089F8003003B0BDE8F08F4022028001464B
:1032D0000420FFF7D5F80022C8F80020E9E73A7883
:1032E0002AB3184D4DF2E9044FF0010A07E0013C02
:1032F00016D02A78A2B900F0ADF83A78BAB1042015
:10330000FFF744F80728F2D889F800A0FFF7F2FE8B
:10331000C8F800000028ACD10C4B013C1870E8D173
:1033200001234FF0FF302B7003B0BDE8F08F002376
:103330004FF0FF3089F8003003B0BDE8F08F00BFD8
:103340007C16FF1F8C16FF1F8416FF1F8516FF1F9C
:103350008816FF1F00B583B002AB012103F8010DF1
:103360001846FFF773FF03B05DF804FB38B50E4D48
:103370000E4C28680123237028B140880023237055
:10338000C0F1400038BD0A4B1B7813B900202070F3
:1033900038BD0420FEF7FAFF0728F7D8FFF7AAFE8A
:1033A00028600028E9D1F1E78816FF1F8516FF1F66
:1033B0007C16FF1FF8B5114B1B788BB1104E114DC9
:1033C000346801272F7064B10F4A63880027177093
:1033D000214623800420FFF753F8376000232B7029
:1033E000F8BDFFF787FE084B28B1014604201C708A
:1033F000FFF746F8F2E71F70F0E700BF7C16FF1FEB
:103400008816FF1F8516FF1F8416FF1F38B50E4B49
:103410001B7873B90D4C216861B103F0FF054B882F
:103420000B800420FFF72CF8256038BD084B0122E3
:103430001A7038BDFFF75EFE0028F7D00146BDE8E0
:1034400038400420FFF71CB88516FF1F8816FF1FA1
:103450008416FF1F38B52C4C237803B138BD0123E7
:103460002370FFF7C9FE002842D100F0D1F80028F0
:103470003BD100F063F9002834D100F0F5F970BBBE
:1034800000F06EFA40BB00F0E7FA10BB00F060FB02
:10349000E0B900232370EFF30583002BDED1EFF3B7
:1034A000108172B6194B186828B3194C227812BBD8
:1034B00045691D60012323700DB3AA6101B962B68D
:1034C00000254577836898472570C7E700F02EF8F8
:1034D000DFE700F029F8D9E700F024F8D3E700F09F
:1034E0001FF8CDE700F01AF8C7E700F015F8C0E7BD
:1034F000FFF7FEFDB9E70029B0D162B638BD054B34
:103500001D600029DCD1DAE79516FF1F8815FF1F23
:103510008C15FF1F8415FF1F704700BF704700BF49
:10352000704700BF704700BF704700BF704700BFC3
:1035300030B42948294A2A4B2A4D6024E1210470DD
:1035400011701B78284C082B30D00A2B27482849AB
:1035500037D00C2B0CBF35225D2212232A6023604A
:1035600002600B60234B24491B78244ABBB1012322
:103570000B601360224B23491B78234A012B26D969
:10358000042B0FD9082B1ED9102B94BF8623872319
:103590000B6013601D4B01221A7030BC70470B602A
:1035A0001360E7E784230B601360F3E700F58E20D8
:1035B0000F490830212213232A60236002600B6028
:1035C000D0E73922F7E785230B601360E2E7802319
:1035D0000B601360DEE700BF00400740014007407A
:1035E000000AFF1F08B003400CB0034008B00B40B6
:1035F0000CB00B409716FF1F20B0034020B00B40CB
:10360000010AFF1F24B0034024B00B409616FF1F91
:10361000054A064B10781B78C0B2DBB2984238BF1F
:103620004030C01A704700BF9C16FF1F9D16FF1F39
:10363000F0B4384B1A7912F0300F2CD072B6997D55
:1036400001F0FF0200293DD062B6334F334938788C
:103650000D78334E1C46C0B2EDB2431C402BE179CD
:1036600028BF0023AB4202F1FF32C9B21CBFF154A4
:10367000184612F0FF02F0D12A4B1B68C2B23A7012
:103680004BB1A84236BFC5F14005401B4019272861
:10369000C4BF01221A701F49CA78D2B2150616D4C7
:1036A00052060DD51B4B1B795B0609D51E4B1F49D6
:1036B0001B6800220A7003B11A70164B3C22DA70A4
:1036C000F0BC70474022D9795A7462B6E3E70B79AF
:1036D0001C06E5D5164B174E1C783378E4B2DBB2E6
:1036E0009C420ED0144D01E0A3420AD00133402B7E
:1036F00028BF00230879E85CC0B2C871087D07289C
:10370000F2D9DBB2034933700B79180644BF7C232E
:10371000CB70C5E700A006409C16FF1F9D16FF1F3B
:10372000E016FF1F9816FF1F2417FF1F2017FF1F0B
:103730002817FF1F2117FF1FA016FF1F054A064B62
:1037400010781B78C0B2DBB2984238BF4030C01A44
:10375000704700BF9C17FF1F3117FF1FF0B4384B95
:103760001A7912F0300F2CD072B6997D01F0FF0259
:1037700000293DD062B6334F334938780D78334E47
:103780001C46C0B2EDB2431C402BE17928BF002398
:10379000AB4202F1FF32C9B21CBFF154184612F01D
:1037A000FF02F0D12A4B1B68C2B23A704BB1A8425B
:1037B00036BFC5F14005401B40192728C4BF012270
:1037C0001A701F49CA78D2B2150616D452060DD502
:1037D0001B4B1B795B0609D51E4B1F491B6800223A
:1037E0000A7003B11A70164B3C22DA70F0BC7047B5
:1037F0004022D9795A7462B6E3E70B791C06E5D505
:10380000164B174E1C783378E4B2DBB29C420ED0D4
:10381000144D01E0A3420AD00133282B28BF002316
:103820000879E85CC0B2C871087D0728F2D9DBB21C
:10383000034933700B79180644BF7C23CB70C5E76E
:1038400000B006409C17FF1F3117FF1F5C17FF1FBA
:103850002C17FF1FA017FF1F3017FF1FA417FF1FF4
:103860009D17FF1F3417FF1F054A064B10781B7862
:10387000C0B2DBB2984238BF4030C01A704700BFB8
:10388000AC17FF1FAD17FF1F30B42B4B1A799406EE
:103890001FD52A48DA790378294901333F2B097863
:1038A000C8BF00238B42D2B203D0264CD9B2E25417
:1038B0000170254A116861B1244A1278D2B293424C
:1038C00036BFC2F140029B1A9B18272BC4BF0123AD
:1038D0000B70194AD378DBB2180611D45A060DD5ED
:1038E000154B1B795B0609D5194B1A491B68002239
:1038F0000A7003B11A70104B2C22DA7030BC70477A
:1039000011790906EAD5144910480C780178C9B232
:103910008C420DD04A1C272A84BF00210A460F4D35
:10392000054C98BFD1B2AA5CD2B2E2710170D5E762
:103930006C21D170D2E700BF00C00640AC17FF1F5A
:10394000AD17FF1FD817FF1FA817FF1F1918FF1F5C
:103950001C18FF1F1818FF1F2018FF1FB017FF1F8C
:10396000054A064B10781B78C0B2DBB2984238BFCC
:103970004030C01A704700BF2818FF1F2918FF1FCA
:1039800030B42B4B1A7994061FD52A48DA7903787C
:10399000294901333F2B0978C8BF00238B42D2B29B
:1039A00003D0264CD9B2E2540170254A116861B1A6
:1039B000244A1278D2B2934236BFC2F140029B1A17
:1039C0009B18272BC4BF01230B70194AD378DBB295
:1039D000180611D45A060DD5154B1B795B0609D56F
:1039E000194B1A491B6800220A7003B11A70104B58
:1039F0002C22DA7030BC704711790906EAD51449D7
:103A000010480C780178C9B28C420DD04A1C272A84
:103A100084BF00210A460F4D054C98BFD1B2AA5C65
:103A2000D2B2E2710170D5E76C21D170D2E700BF4C
:103A300000D006402818FF1F2918FF1F5418FF1F29
:103A40002418FF1F9518FF1F9818FF1F9418FF1FB9
:103A50009C18FF1F2C18FF1F054A064B10781B7877
:103A6000C0B2DBB2984238BF4030C01A704700BFC6
:103A7000A418FF1FA518FF1F30B42B4B1A7994060A
:103A80001FD52A48DA790378294901333F2B097871
:103A9000C8BF00238B42D2B203D0264CD9B2E25425
:103AA0000170254A116861B1244A1278D2B293425A
:103AB00036BFC2F140029B1A9B18272BC4BF0123BB
:103AC0000B70194AD378DBB2180611D45A060DD5FB
:103AD000154B1B795B0609D5194B1A491B68002247
:103AE0000A7003B11A70104B2C22DA7030BC704788
:103AF00011790906EAD5144910480C780178C9B241
:103B00008C420DD04A1C272A84BF00210A460F4D43
:103B1000054C98BFD1B2AA5CD2B2E2710170D5E770
:103B20006C21D170D2E700BF00A00E40A418FF1F87
:103B3000A518FF1FD018FF1FA018FF1F1119FF1F86
:103B40001419FF1F1019FF1F1819FF1FA818FF1FB6
:103B5000054A064B10781B78C0B2DBB2984238BFDA
:103B60004030C01A704700BF2019FF1F2119FF1FE6
:103B700030B42B4B1A7994061FD52A48DA7903788A
:103B8000294901333F2B0978C8BF00238B42D2B2A9
:103B900003D0264CD9B2E2540170254A116861B1B4
:103BA000244A1278D2B2934236BFC2F140029B1A25
:103BB0009B18272BC4BF01230B70194AD378DBB2A3
:103BC000180611D45A060DD5154B1B795B0609D57D
:103BD000194B1A491B6800220A7003B11A70104B66
:103BE0002C22DA7030BC704711790906EAD51449E5
:103BF00010480C780178C9B28C420DD04A1C272A93
:103C000084BF00210A460F4D054C98BFD1B2AA5C73
:103C1000D2B2E2710170D5E76C21D170D2E700BF5A
:103C200000B00E402019FF1F2119FF1F4C19FF1F64
:103C30001C19FF1F8D19FF1F9019FF1F8C19FF1FE3
:103C40009419FF1F2419FF1F72B6184A184B1949FF
:103C50001160702280211A701A46197013781B06A1
:103C6000FCD510B5144B84B0186862B6134B144CD5
:103C7000984298BF00EB800001A998BF40000A223B
:103C8000FEF73EF901A92046002311F8012B01336C
:103C90003AB10A2B20F8022FF7D11623237004B073
:103CA00010BD5B00DBB2237004B010BD0400024005
:103CB00000000240000007410C0002407F9698007F
:103CC000900AFF1FFFFFFFFFF0B52DED048BB0EE54
:103CD000409AF0EE609A3A4C8BB000F045F994F9B6
:103CE0000030B0EE408AF0EE608A013338D0B0EE9A
:103CF000490AF0EE690A00F0D3FC88B32CA3D3E99B
:103D0000002351EC190B01F01DF9054680BB2AA3D5
:103D1000D3E9002351EC190B01F0F6F800B394F944
:103D20000030284A0895002600270421022B8DED3B
:103D3000049B8DED029BCDE906678DE8060030D02F
:103D4000684600F0B5FC60B3089B1BB101F092F926
:103D5000089B03609DED060B0BB0BDEC048BF0BD22
:103D6000B0EE480AF0EE680A0BB0BDEC048BF0BD73
:103D7000144A94F900300192032100228DED049B36
:103D80008DED029B009108922BB90F4B4FF06042D2
:103D9000CDE90623D4E70D490020022BCDE9060129
:103DA000CED101F067F922230360CDE7AFF30080A5
:103DB000EF39FAFE422E864051302DD5104987C08A
:103DC000A60AFF1F7C5D0000FFFFEF470000F07FA9
:103DD0002DE9F0432DED028B8BB057EC106B55ECB9
:103DE000114B00F053FA2E4BB0EE408AF0EE608A91
:103DF00093F90080B8F1FF3F31D022462B46204690
:103E0000294601F0A9F850BB32463B4630463946B8
:103E100001F0A2F8814610BB00220023204629466B
:103E200001F068F8D8B11F4BCDF820900122CDE900
:103E30000267CDE904458DE80C00B8F1000F17D1F9
:103E4000CDE90667684600F033FCE0B1089B0BBB88
:103E50009DED060B0BB0BDEC028BBDE8F083B0EE20
:103E6000480AF0EE680A0BB0BDEC028BBDE8F083A7
:103E7000002200231046194600F0FEFEB8F1020FA2
:103E8000CDE90601DED101F0F5F821230360089B9E
:103E9000002BDDD001F0EEF8089B0360D8E700BFEF
:103EA000A60AFF1F805D00002DE9F0432DED028B77
:103EB0008BB055EC104B00F023FB294BB0EE408A41
:103EC000F0EE608A93F90060731C12D022462B46F4
:103ED0002046294601F040F8074650B94FF0000847
:103EE0004FF000092046294642464B4601F00CF8A7
:103EF00040B9B0EE480AF0EE680A0BB0BDEC028B98
:103F0000BDE8F083174B08970122CDE90445CDE9C0
:103F100002458DE80C00B6B142464B464046494644
:103F200000F0AAFE022ECDE906010ED101F0A2F8A2
:103F300021230360089B73B99DED060B0BB0BDEC0C
:103F4000028BBDE8F083CDE90689684600F0B0FB3E
:103F50000028EFD1EAE701F08DF8089B0360EBE75A
:103F6000A60AFF1F885D00002DE9F04F55EC104BAD
:103F7000BD4925F000428A4283B04FEAD5770DD97A
:103F8000BA498A422AD9C5F31303234340F0FA8081
:103F90000FB19FED9D0B03B0BDE8F08FB44B9A427B
:103FA00000F2D580B34B9A4200F2EA8098A3D3E99D
:103FB000002310EE100A294600F082FB0022AE4BCF
:103FC00000F0C0FF002800F01C8120462946002296
:103FD000A94B00F075FB41EC100BDCE78EA3D3E995
:103FE000002310EE100A294600F0ACFF002840F034
:103FF000D3808BA3D3E900232046294600F084FF19
:104000000028C6D19D4E88A3D3E9002306EBC7063E
:104010002046294600F006FDD6E9002300F050FBBB
:1040200000F0B0FF064600F097FC81A3D3E900231F
:104030008046894600F0F6FC02460B46204629469B
:1040400000F03CFB7CA3D3E90023CDE9000140460E
:10405000494600F0E7FC82468B4652465B46DDE966
:10406000000100F02BFB04460D4622462B4620465D
:10407000294600F0D7FC72A3D3E900238046894685
:1040800000F0D0FC70A3D3E9002300F017FB4246F8
:104090004B4600F0C7FC6EA3D3E9002300F010FBF1
:1040A00042464B4600F0BEFC6BA3D3E9002300F070
:1040B00005FB42464B4600F0B5FC69A3D3E900235B
:1040C00000F0FEFA42464B4600F0ACFC02460B46BE
:1040D0002046294600F0F2FA80468946002E65D037
:1040E0002046294642464B4600F09CFC4246044688
:1040F0000D464B4600204FF0804100F0DFFA0246AB
:104100000B462046294600F0B7FD02460B465046B6
:10411000594600F0D3FADDE9002300F0CFFA0B4650
:1041200002465549002000F0C9FA6FF47F739E42A1
:1041300060DA06F57A7601EB065100224FF0B8738B
:1041400000F070FC41EC100B03B0BDE8F08F4C4B5D
:104150009A423FF657AF4B4B4FEAC7084344D3E967
:10416000002310EE100A294600F0A8FA464BC7F1CA
:1041700001069844CDE90001D8E900ABF61B6CE7D5
:10418000002672E710EE102A2B462046294600F042
:1041900097FA41EC100BFEE61DA3D3E9002310466D
:1041A000194600F03FFC41EC100BF4E602460B46CA
:1041B0002046294600F036FC002206460F464FF006
:1041C00080434046494600F079FA02460B463046A5
:1041D000394600F051FD22462B4600F06FFA0246A8
:1041E0000B460020244900F069FA41EC100B03B0A3
:1041F000BDE8F08F01EB065141EC100B03B0BDE8B8
:10420000F08F064631E700BF00000000000000000C
:104210009C7500883CE4377EEF39FAFE422E8640DA
:1042200051302DD5104987C0FE822B654715F73FC9
:104230000000E0FE422EE63F763C7935EF39EA3D5C
:10424000D0A4BE726937663EF16BD2C541BDBB3E9C
:104250002CDE25AF6A56113F93BDBE166CC1663F7A
:104260003E5555555555C53F412E8640FFFFEF7FC2
:10427000422ED63FFFFF2F3E0000F03F905D000032
:10428000B1A2F03FB05D0000A05D00002DE9F84F45
:1042900053EC112B23F0004952EA090055EC104B66
:1042A00025D005F000468F4885EA060B83451EDCC5
:1042B00050421043DFF844C249EAD070604511EE25
:1042C000108A14D8CB451F4610EE10AA11EE10EA42
:1042D00010EE101A17DC28DB944226D313D1824B40
:1042E000F60F03EBC60393ED000BBDE8F88F2046F5
:1042F000294600F097FB02460B4600F0BDFC41EC5E
:10430000100BBDE8F88FBBF5801F12DABBF1000F70
:1043100040F0A780BAF1000F534674480DDD5B00F2
:10432000002B00F1FF30FADC07E045EC104BBDE854
:10433000F88F4FEA2B50A0F2FF30B9F5801F0FDA4B
:10434000B9F1000F40F0A780B8F1000F4346DFF845
:104350009CC109DD5B00002B0CF1FF3CFADC03E0A3
:104360004FEA295CACF2FF3C614B98425BDBCBF33C
:10437000130343F480135E4A944563DBC7F31305CC
:1043800045F48015CCEB000007E052EA040313D09B
:10439000E30F03EB420361000138CEEB01045A1B2B
:1043A00090B1714538BF02F1FF32002AEDDACA0F31
:1043B00002EB43034900EFE74B4BF60F03EBC60656
:1043C00096ED000BBDE8F88F7145154638BF02F138
:1043D000FF35002DACBFCEEB01011D4655EA0103B0
:1043E000EAD0444A954208DCCB0F03EB45059542E1
:1043F0000CF1FF3C4FEA4101F6DD3D4B9C4554DAA0
:104400003B4ACCEB0202142A5BDCC2F1200305FA22
:1044100003F3D1400B43154145EA0601184641EC30
:10442000100BBDE8F88F3249091A1F292DDCC1F1A4
:1044300020030BFA01FB2AFA03F343EA0B030AFAFF
:1044400001F198E72A4CCCEB04041F2C15DCC4F1D5
:10445000200209FA04F528FA02F2154308FA04FECC
:1044600090E74FEACB23002B21487FF766AF5B0034
:10447000002B00F1FF30FADC5FE71F4DCCEB0505A8
:1044800008FA05F54FF0000E7CE71B4B1B1A0AFAE1
:1044900003F300216FE7DFF858C04FEAC9235B0040
:1044A000002B0CF1FF3CFADC5EE7A5F580152E43EE
:1044B0000CF2FF3C46EA0C530A4643EC102BBDE8D5
:1044C000F88F1F2A07DCC2F120039D40D14045EA46
:1044D00001033546A0E7084BCCEB030345FA03F391
:1044E000354699E7FFFFEF7FC05D0000EDFBFFFF62
:1044F00002FCFFFFFFFF0F00E2FBFFFF0000F07F69
:104500002DE9F041654955EC104B0E462940B1426A
:1045100000F09780002D2B4610EE102A74DD2F1529
:104520007FD0A7F2FF37C3F31303F90743F48013D7
:1045300065D403EBD27100260B447F105200B646BF
:1045400016204FF400110EEB01049C424FEAD27585
:104550004FEA420203DC1B1B04EB010E0E44013840
:1045600005EB43034FEA5101EDD1844620244FF07F
:10457000004109E020D003EBD275013C4FEA510124
:104580002B444FEA420220D09E4501EB0C05F1DAA4
:10459000002D05EB010C09DBF0469542CEEB030341
:1045A00000D9013B521B0844C646E4E7BCF1000FAA
:1045B000F2DB0EF10108F0E795421ED8002D05EB65
:1045C000010C50DB98460023ECE7134304D0421C57
:1045D0004DD000F00103184440087110F30701F1B9
:1045E0007F5101F5001148BF40F0004001EB075337
:1045F000024643EC102BBDE8F0817346BBE75B003D
:1046000003EBD273520094E725F00041214328D0F8
:10461000ADBB2F46D30A153F5205002BFAD0DD0261
:1046200028D4002100E001465B00DC0201F101001A
:10463000F9D5C0F1200422FA04F423437F1A824002
:104640006FE710EE102A2B4610EE100A294600F0F4
:10465000E9F922462B4600F033F841EC100BBDE897
:10466000F081BDE8F081BCF1000FA2DAAAE70136C3
:104670002046B2E720244FF0FF310020DBE710EEA8
:10468000102A2B462046294600F018F802460B4611
:1046900000F0F2FA41EC100BBDE8F0810000F07F71
:1046A00010EE903A43F0004000F58010C00F7047C4
:1046B0000020704781F0004102E000BF83F000431A
:1046C00030B54FEA41044FEA430594EA050F08BFAD
:1046D00090EA020F1FBF54EA000C55EA020C7FEA71
:1046E000645C7FEA655C00F0E2804FEA5454D4EBEE
:1046F0005555B8BF6D420CDD2C4480EA020281EAB8
:10470000030382EA000083EA010180EA020281EAEF
:104710000303362D88BF30BD11F0004F4FEA013141
:104720004FF4801C4CEA113102D0404261EB410150
:1047300013F0004F4FEA03334CEA133302D05242D6
:1047400063EB430394EA050F00F0A780A4F1010492
:10475000D5F1200E0DDB02FA0EFC22FA05F28018CC
:1047600041F1000103FA0EF2801843FA05F35941B2
:104770000EE0A5F120050EF1200E012A03FA0EFC31
:1047800028BF4CF0020C43FA05F3C01851EBE3715B
:1047900001F0004507D54FF0000EDCF1000C7EEB78
:1047A00000006EEB0101B1F5801F1BD3B1F5001FB6
:1047B0000CD349085FEA30004FEA3C0C04F10104D5
:1047C0004FEA445212F5800F80F09A80BCF1004FFE
:1047D00008BF5FEA500C50F1000041EB045141EA80
:1047E000050130BD5FEA4C0C404141EB010111F481
:1047F000801FA4F10104E9D191F0000F04BF01462C
:104800000020B1FA81F308BF2033A3F10B03B3F109
:1048100020020CDA0C3208DD02F1140CC2F10C0299
:1048200001FA0CF021FA02F10CE002F11402D8BFF7
:10483000C2F1200C01FA02F120FA0CFCDCBF41EAC3
:104840000C019040E41AA2BF01EB0451294330BD92
:104850006FEA04041F3C1CDA0C340EDC04F114046F
:10486000C4F1200220FA04F001FA02F340EA030046
:1048700021FA04F345EA030130BDC4F10C04C4F18C
:10488000200220FA02F001FA04F340EA030029466C
:1048900030BD21FA04F0294630BD94F0000F83F4B6
:1048A000801306BF81F480110134013D4EE77FEA99
:1048B000645C18BF7FEA655C29D094EA050F08BFE5
:1048C00090EA020F05D054EA000C04BF19461046C6
:1048D00030BD91EA030F1EBF0021002030BD5FEA0A
:1048E000545C05D14000494128BF41F0004130BD32
:1048F00014F580043CBF01F5801130BD01F0004586
:1049000045F0FE4141F470014FF0000030BD7FEAF8
:10491000645C1ABF194610467FEA655C1CBF0B46F3
:10492000024650EA013406BF52EA033591EA030F0A
:1049300041F4002130BD00BF90F0000F04BF002102
:10494000704730B54FF4806404F132044FF0000535
:104950004FF0000150E700BF90F0000F04BF0021AE
:10496000704730B54FF4806404F1320410F0004514
:1049700048BF40424FF000013EE700BF42004FEA0F
:10498000E2014FEA31014FEA02701FBF12F07F438C
:1049900093F07F4F81F06051704792F0000F14BF89
:1049A00093F07F4F704730B54FF4607401F00045CD
:1049B00021F0004120E700BF50EA010208BF704724
:1049C00030B54FF000050AE050EA010208BF704719
:1049D00030B511F0004502D5404261EB41014FF482
:1049E000806404F132045FEA915C3FF4DCAE4FF086
:1049F00003025FEADC0C18BF03325FEADC0C18BF6D
:104A0000033202EBDC02C2F1200300FA03FC20FABD
:104A100002F001FA03FE40EA0E0021FA02F114440A
:104A2000C1E600BF70B54FF0FF0C4CF4E06C1CEA1F
:104A300011541DBF1CEA135594EA0C0F95EA0C0F94
:104A400000F0DEF82C4481EA030621EA4C5123EA07
:104A50004C5350EA013518BF52EA033541F4801136
:104A600043F4801338D0A0FB02CE4FF00005E1FBE9
:104A700002E506F00042E0FB03E54FF00006E1FB33
:104A800003569CF0000F18BF4EF0010EA4F1FF0476
:104A9000B6F5007F64F5407404D25FEA4E0E6D41B6
:104AA00046EB060642EAC62141EA55514FEAC520C7
:104AB00040EA5E504FEACE2EB4F1FD0C88BFBCF543
:104AC000E06F1ED8BEF1004F08BF5FEA500E50F1F4
:104AD000000041EB045170BD06F0004646EA0101BA
:104AE00040EA020081EA0301B4EB5C04C2BFD4EBEC
:104AF0000C0541EA045170BD41F480114FF0000EE5
:104B0000013C00F3AB8014F1360FDEBF002001F052
:104B1000004170BDC4F10004203C35DA0C341BDCCC
:104B200004F11404C4F1200500FA05F320FA04F09E
:104B300001FA05F240EA020001F0004221F00041D2
:104B400010EBD37021FA04F642EB06015EEA430E45
:104B500008BF20EAD37070BDC4F10C04C4F1200575
:104B600000FA04F320FA05F001FA04F240EA020028
:104B700001F0004110EBD37041F100015EEA430EF9
:104B800008BF20EAD37070BDC4F1200500FA05F219
:104B90004EEA020E20FA04F301FA05F243EA020398
:104BA00021FA04F001F0004121FA04F220EA0200A7
:104BB00000EBD3705EEA430E08BF20EAD37070BDED
:104BC00094F0000F0FD101F00046400041EB0101CD
:104BD00011F4801F08BF013CF7D041EA060195F0AF
:104BE000000F18BF704703F00046520043EB030369
:104BF00013F4801F08BF013DF7D043EA0603704756
:104C000094EA0C0F0CEA135518BF95EA0C0F0CD060
:104C100050EA410618BF52EA4306D1D181EA0301A6
:104C200001F000414FF0000070BD50EA410606BFA0
:104C30001046194652EA430619D094EA0C0F02D1E5
:104C400050EA013613D195EA0C0F05D152EA03362A
:104C50001CBF104619460AD181EA030101F0004148
:104C600041F0FE4141F470014FF0000070BD41F091
:104C7000FE4141F4780170BD70B54FF0FF0C4CF46B
:104C8000E06C1CEA11541DBF1CEA135594EA0C0F8A
:104C900095EA0C0F00F0A7F8A4EB050481EA030ED7
:104CA00052EA03354FEA013100F088804FEA0333BE
:104CB0004FF0805545EA131343EA12634FEA02228C
:104CC00045EA111545EA10654FEA00260EF000414D
:104CD0009D4208BF964244F1FD0404F5407402D29F
:104CE0005B084FEA3202B61A65EB03055B084FEA30
:104CF00032024FF480104FF4002CB6EB020E75EB2D
:104D0000030E22BFB61A754640EA0C005B084FEA54
:104D10003202B6EB020E75EB030E22BFB61A7546D1
:104D200040EA5C005B084FEA3202B6EB020E75EB1C
:104D3000030E22BFB61A754640EA9C005B084FEA94
:104D40003202B6EB020E75EB030E22BFB61A7546A1
:104D500040EADC0055EA060E18D04FEA051545EA90
:104D600016754FEA06164FEAC30343EA52734FEA39
:104D7000C2025FEA1C1CC0D111F4801F0BD141EAB2
:104D800000014FF000004FF0004CB6E711F4801F17
:104D900004BF01430020B4F1FD0C88BFBCF5E06FF7
:104DA0003FF6AFAEB5EB030C04BFB6EB020C5FEA07
:104DB000500C50F1000041EB045170BD0EF0004E5C
:104DC0004EEA113114EB5C04C2BFD4EB0C0541EA8E
:104DD000045170BD41F480114FF0000E013C90E68B
:104DE00045EA060E8DE60CEA135594EA0C0F08BF4F
:104DF00095EA0C0F3FF43BAF94EA0C0F0AD150EA4E
:104E000001347FF434AF95EA0C0F7FF425AF1046E0
:104E100019462CE795EA0C0F06D152EA03353FF408
:104E2000FDAE1046194622E750EA410618BF52EA85
:104E300043067FF4C5AE50EA41047FF40DAF52EA59
:104E400043057FF4EBAE12E74FF0FF3C06E000BFF6
:104E50004FF0010C02E000BF4FF0010C4DF804CD03
:104E60004FEA410C7FEA6C5C4FEA430C18BF7FEAC3
:104E70006C5C1BD001B050EA410C0CBF52EA430CF1
:104E800091EA030F02BF90EA020F0020704710F171
:104E9000000F91EA030F58BF994208BF90422CBF00
:104EA000D8176FEAE37040F0010070474FEA410CF9
:104EB0007FEA6C5C02D150EA013C07D14FEA430C17
:104EC0007FEA6C5CD6D152EA033CD3D05DF8040B88
:104ED000704700BF8446104662468C4619466346BA
:104EE00000E000BF01B5FFF7B7FF002848BF10F191
:104EF000000F01BD4DF808EDFFF7F4FF0CBF0120D6
:104F000000205DF808FB00BF4DF808EDFFF7EAFF51
:104F100034BF012000205DF808FB00BF4DF808ED0C
:104F2000FFF7E0FF94BF012000205DF808FB00BF01
:104F30004DF808EDFFF7CEFF94BF012000205DF88B
:104F400008FB00BF4DF808EDFFF7C4FF34BF012098
:104F500000205DF808FB00BF4FEA410C7FEA6C5C63
:104F600002D150EA013C0AD14FEA430C7FEA6C5C63
:104F700002D152EA033C02D14FF0000070474FF0DB
:104F8000010070474FEA410212F5001215D211D507
:104F90006FF47873B3EB625212D94FEAC12343F036
:104FA000004343EA505311F0004F23FA02F018BFB8
:104FB000404270474FF00000704750EA013005D181
:104FC00011F0004008BF6FF0004070474FF0000044
:104FD000704700BF4FEA4102B2F1E04324BFB3F58E
:104FE000001CDCF1FE5C0DD901F0004C4FEAC00260
:104FF0004CEA5070B2F1004F40EB830008BF20F044
:105000000100704711F0804F21D113F13872BCBFFD
:1050100001F00040704741F480114FEA5252C2F152
:105020001802C2F1200C10FA0CF320FA02F018BF9B
:1050300040F001004FEAC1234FEAD32303FA0CFCEE
:1050400040EA0C0023FA02F34FEA4303CCE77FEA7D
:10505000625307D150EA01331EBF4FF0FE4040F4C7
:105060004000704701F0004040F0FE4040F4000076
:10507000704700BF014B1868704700BFD00EFF1F7C
:1050800070B50F4E0F4D761BB61018BF002405D01B
:10509000013455F8043B9847A642F9D10A4E0B4D0E
:1050A000761B00F097FEB61018BF002406D001341E
:1050B00055F8043B9847A642F9D170BD70BD00BFBA
:1050C000E05D0000E05D0000EC5D0000E05D0000E0
:1050D000024B0146186800F003B800BFD00EFF1F56
:1050E0002DE9F04F01F10B05162D83B0064640F275
:1050F0009F8035F0070500F1BF80A94200F2BC8017
:1051000000F0A6FAB5F5FC7FC0F09C826B0A00F0B7
:10511000BA80042B00F28381A80900F1390E4FEA0E
:105120004E033830C44F07EB8303A3F108015C68DA
:10513000A14207D1ACE0002A80F2AC80E468A14231
:1051400000F0A680636823F003035A1B0F2AF2DDE8
:10515000B9493C6901F1080E744500F0B3816368F8
:1051600023F003035A1B0F2A00F39981002AC1F888
:1051700014E0C1F810E080F29E80B3F5007F80F06B
:105180006781DB0803F1010C01229B1002FA03F393
:105190004A6851F83C80C4F8088001EBCC091A43F6
:1051A000A9F10803E3604A6041F83C40C8F80C40AC
:1051B000831001249C40944200F28A80144206D15C
:1051C00020F003006400144200F10400FAD007EB61
:1051D000C009CC468046DCF80C108C4507D173E141
:1051E000002A80F28181C9688C4500F06D814B688E
:1051F00023F003035A1B0F2AF2DD0C46D1F80CC032
:1052000054F8088F4B1945F001054D6042F001013B
:10521000C8F80CC03046CCF808807B613B61C3F80D
:105220000CE0C3F808E059609A5000F013FA1FE050
:10523000102921D800F00CFA1025062302207E4FF9
:1052400007EB8303A3F108025C68944200F04581F8
:105250006368E168A56823F00303234430465A6875
:10526000E96042F001028D605A6000F0F3F9083401
:10527000204603B0BDE8F08F00240C2320463360A5
:1052800003B0BDE8F08F80234FF0400E3F2049E788
:1052900070465DE72344E1685A68A56842F0010260
:1052A000E96030468D605A6000F0D4F90834204639
:1052B00003B0BDE8F08F234430465A6842F0010243
:1052C0005A6000F0C7F90834204603B0BDE8F08FFB
:1052D000BC68636823F00308A84504D3C5EB080342
:1052E0000F2B00F38C80554BDFF860911A68D9F8CA
:1052F000003001332A4404EB080A00F0608102F513
:1053000080520F3222F47F6222F00F0211463046A3
:10531000019200F0A1F9B0F1FF3F8346019A00F03D
:105320005881824500F2FC80454B1968DA451144EA
:10533000196000F05381D9F80000DFF810E1013066
:105340001BBFCAEB0B0A5144CEF800B019601BF02A
:10535000070100F01781C1F10800C1F580518344B5
:1053600008315A44C2F30B02C2EB010949463046E8
:10537000019300F071F9431C019B00F03F81CBEBDE
:1053800000024A4442F001021968C7F808B04944D3
:10539000BC42CBF804201960DFF8A49016D0B8F115
:1053A0000F0F40F2FD806268A8F10C0323F00703A1
:1053B000E01802F001024FF0050E1A430F2B626055
:1053C000C0F804E0C0F808E000F21C811D4BBC6886
:1053D0001A68914288BF19601B4B1A689142626833
:1053E00088BF196022F003029542A2EB050301D8A1
:1053F0000F2B04DC304600F02DF9002438E7621949
:1054000043F0010345F0010565603046BA60536022
:1054100000F020F90834204603B0BDE8F08F142BCB
:1054200071D9542B00F2A480280B00F16F0E4FEAC3
:105430004E036E3076E600BFD40EFF1FA019FF1F8B
:10544000A419FF1F9C19FF1F9819FF1FE012FF1FCF
:105450005A0A042A5ED9142A00F2B38002F15C01D0
:1054600049005B3207EB810C57F82110DFF8DC8133
:10547000ACF1080C8C4500F088804A6822F00302E9
:10548000934202D289688C45F7D1D1F80CC07A6872
:10549000C4F80CC0A160CCF80840CC6088E6631961
:1054A00042F0010745F00105656030464B610B6134
:1054B000C3F80CE0C3F808E05F609A50083400F0CD
:1054C000C9F8D5E64A6873E608F1010818F0030F39
:1054D0000CF1080C7FF47FAE30E0DC68A34208BF1B
:1054E00002303FF435AEB3E60B440C465A68C96847
:1054F00054F8085F42F001025A603046E9608D605E
:1055000000F0A8F8B4E603F15C0E03F15B004FEA8B
:105510004E0307E69A0902F1390149003832A1E742
:10552000BC424A4B3FF400AF9C68626822F0030221
:105530005AE759F80839994540F0828010F0030F76
:1055400000F1FF30F5D17B6823EA04037B6064003F
:105550009C423FF6BDAE002C3FF4BAAE1C42404622
:105560007FF435AE64001C4200F10400FAD02EE650
:10557000B3F5AA7F18D8E80B00F1780E4FEA4E0376
:105580007730CFE54FF48051EBE60121D8F80430B5
:10559000921001FA02F21A43C8F80420614677E734
:1055A0000123CBF8043025E740F25452934220D82F
:1055B000A80C00F17D0E4FEA4E037C30B2E51032AC
:1055C000A4E6542A26D81A0B02F16F0149006E3264
:1055D00048E7BC68626822F0030205E7CAF30B00E3
:1055E00000287FF4A8AE4244BB6842F001025A6032
:1055F000ECE6FE234FF07F0E7E2093E501224FF074
:105600000009C1E604F10801304600F0A9F8D9F814
:105610000010DBE6B2F5AA7F05D8DA0B02F17801BB
:10562000490077321EE740F254518A4205D89A0C5D
:1056300002F17D0149007C3214E7FE217E2211E750
:105640007B6884E7E808431C5B00F8E5D40EFF1F85
:10565000704700BF704700BF38B5074C00230546B0
:1056600008462360FCF736FC431C00D038BD236895
:10567000002BFBD02B6038BDE019FF1F024B13B18C
:10568000024800F005B87047000000009D56000079
:10569000002301461A46184600F04AB938B5074DAE
:1056A000074C2C1BA41005D0013C55F8043D98472D
:1056B000002CF9D1BDE8384000F098BB0000000094
:1056C00000000000F8B5234F0C460646FFF7C0FF68
:1056D000BB685D6825F00305291B01F6EF7121F415
:1056E0007F6121F00F01A1F58054B4F5805F07DBE5
:1056F00000213046FFF7B0FFBB682B44984204D02E
:105700003046FFF7A7FF0020F8BD61423046FFF7A3
:10571000A3FF01300DD0104BBA6819682D1B45F05E
:1057200001053046091B55601960FFF793FF012002
:10573000F8BD00213046FFF78FFFBA68831A0F2BA0
:10574000DEDD064C0449246843F00103001B53606E
:105750000860D5E7D40EFF1FA419FF1FE012FF1F3A
:10576000002945D02DE9F0410D468046FFF770FF36
:1057700055F8047C6A4927F00103A5F10804E218F2
:105780008E685068B24220F0030062D0FE0750607D
:105790000BD455F8087CE41B01F1080EA56875458B
:1057A0003B446FD0E768EF60BD6015186D68ED078A
:1057B00042D543F001026260E350B3F5007F18D296
:1057C000DB085A1C4D6851F83270A76001209B100D
:1057D00000FA03F301EBC2001D430838E0604D609E
:1057E00041F83240FC604046BDE8F041FFF732BF6F
:1057F00070475A0A042A53D89A0902F139077F00E0
:1058000002F1380501EB870051F827204449083898
:1058100090424DD0516821F003018B4202D2926830
:105820009042F7D1D068E060A2608460D4604046C6
:10583000BDE8F041FFF70EBF95683A4FBD42034403
:105840003FD0D068E86043F0010285606260E350B9
:10585000B3E7FF07034407D455F8082CA41A1344F0
:10586000A068E268C26090602F4A126843F00100AD
:10587000934260608C60B6D32C4B40461968FFF7AA
:1058800021FFB0E711184968C90744D49168D2686C
:10589000CA60034443F0010091606060E350A2E7F6
:1058A000142A17D802F15C077F0002F15B05A9E713
:1058B000AA104B68012505FA02F213434B60024619
:1058C000B1E743F001024C610C61E560A5606260E4
:1058D000E35088E7542A06D81A0B02F16F077F00BD
:1058E00002F16E058EE7B2F5AA7F06D8DA0B02F157
:1058F00078077F0002F1770584E740F25450824236
:1059000006D89A0C02F17D077F0002F17C0579E749
:10591000FE277E2576E743F001026260E35062E7EE
:10592000D40EFF1FDC0EFF1FDC12FF1FA019FF1F8C
:105930002DE9F047254C2568D5F8484106468846AC
:1059400092469946C4B360681F2817DC431C76B1A1
:1059500004EB80050122C5F888A0D4F888118240A4
:105960001143022EC4F88811C5F808911ED00230E8
:10597000636044F820800020BDE8F087144B03B337
:105980004FF4C870FFF7A4FB0446D0B1D5F84831F6
:10599000002780E88800C5F8484138460123C4F84C
:1059A0008871C4F88C71002EE1D0D1E7D4F88C1145
:1059B0000A43C4F88C21DAE705F5A674C5F8484116
:1059C000C1E74FF0FF30BDE8F08700BFD05D0000B9
:1059D000D1500000537461727400000043616C691F
:1059E00062726174696E672E2E2E204D6F7665206F
:1059F00074686520737469636B732061726F756E70
:105A0000642E2E2E00000000507265737320616EAC
:105A100079206B657920746F20636F6E74696E7581
:105A2000652E2E2E0000000009207C200900FFFFBB
:105A30003C80044000100000041A0000FF7F0000BA
:105A40000F0E0000291100000C0827FF00020000C3
:105A50000002000000020000000000000B071CFF15
:105A60000002000000020000000200000000000030
:105A70000D0E1B00000200000002000000020000EA
:105A80000A020906141715160F1A2D00000200004D
:105A900000020000000200000002000000020000FE
:105AA00000020000000200000002000000020000EE
:105AB00000020000000300000101020204040808C3
:105AC000100120000000000000000000E5150000AB
:105AD00075150000C514000089130000751600003C
